:020000041000EA
:1000000000B50C4B00219960042159610A4919601F
:100010000A490B480160002159600121996001BC27
:10002000002800D0004707480749086003C880F34C
:10003000088808470000001800031F00180200038A
:10004000F40000180001001008ED00E000000000BE
:1000500000000000000000000000000000000000A0
:100060000000000000000000000000000000000090
:100070000000000000000000000000000000000080
:100080000000000000000000000000000000000070
:100090000000000000000000000000000000000060
:1000A0000000000000000000000000000000000050
:1000B0000000000000000000000000000000000040
:1000C0000000000000000000000000000000000030
:1000D0000000000000000000000000000000000020
:1000E0000000000000000000000000000000000010
:1000F0000000000000000000000000002CEC210DBA
:100100000000042061020010870200108702001026
:10011000802010B50024094A094982B08004019466
:10012000019B934205D8019B01330193019B9342AC
:10013000F9D90B6803430B60F1E7C046473C000068
:100140001C0000D0F0B5DE4657464E4645462021FD
:10015000374AE0B5136883B08B43136020223549DA
:100160000B681A42FCD005228021334B89041A60A7
:10017000324A13680B431360314B324A934201D029
:10018000FFF7C6FF304B1D689946002DF8D12F4B65
:100190001C689846642CF3D12D4A2E4F1368FA261A
:1001A00001932D4B76009B462C4B9A463B004746CD
:1001B00098464B4601351D60B5420CD34B46002294
:1001C0001A605B461A6880239B041A435B461A60D8
:1001D0004B463C681D68A54208D353461A688023E5
:1001E0009B041A4353461A604B461D6843466421DC
:1001F00028001C6800F08CF8002904D1019B9C4663
:10020000434664441C60B44207DB012301355B4272
:100210003E600193B542D1D2E8E7002C01DC012316
:100220000193B44201D9FA2464003C60C1E7C0469E
:1002300000C0004008C00040CC400140240000D075
:1002400000000420000004200C0000200400002016
:100250000000002008000020140000D0180000D08A
:1002600009490A4A0A4B9B1A03DD043BC858D0507F
:10027000FBDC0749074A0020521A02DD043A885085
:10028000FCDCFFF75FFFFEE7280300100000002002
:100290000800002010000020002934D00123002293
:1002A00010B488422CD301242407A14204D28142F5
:1002B00002D209011B01F8E7E400A14204D2814205
:1002C00002D249005B00F8E7884201D3401A1A4382
:1002D0004C08A04202D3001B5C0822438C08A042B9
:1002E00002D3001B9C082243CC08A04202D3001B6F
:1002F000DC082243002803D01B0901D00909E3E7E9
:10030000100010BC704701B5002000F00BF802BDD2
:100310000029F8D003B5FFF7C1FF0EBC4243891A8C
:080320001847C0467047C046B3
:08032800010000006400000068
:040000051000026184
:00000001FF
