:020000041000EA
:1000000000B50C4B00219960042159610A4919601F
:100010000A490B480160002159600121996001BC27
:10002000002800D0004707480749086003C880F34C
:10003000088808470000001800031F00180200038A
:10004000F40000180001001008ED00E000000000BE
:1000500000000000000000000000000000000000A0
:100060000000000000000000000000000000000090
:100070000000000000000000000000000000000080
:100080000000000000000000000000000000000070
:100090000000000000000000000000000000000060
:1000A0000000000000000000000000000000000050
:1000B0000000000000000000000000000000000040
:1000C0000000000000000000000000000000000030
:1000D0000000000000000000000000000000000020
:1000E0000000000000000000000000000000000010
:1000F0000000000000000000000000002CEC210DBA
:1001000000000420CD0200109D0200109D0200108E
:1001100082B00023019302E0019B01330193019A15
:10012000024B9A42F8D902B07047C046473C0000E3
:1001300010B5FFF7EDFF034A116880239B040B43C2
:100140001360F6E71C0000D0034A116880239B046B
:100150000B4313607047C046140000D0034A116877
:1001600080239B040B4313607047C046180000D0E7
:1001700010B5064B1A68FA235B009A4200D210BDF4
:10018000024B00221A60FFF7DFFFF8E70C000020A7
:1001900010B5054B1A68054B1B689A4200D210BD7A
:1001A000FFF7DCFFFBE7C0460C0000200400002046
:1001B000FA235B00984200D91800014B1860704781
:1001C0000400002010B5104B1868642100F0D6F828
:1001D000002905D10D4B19680D4A13685B1813608F
:1001E0000B4B1868FA235B00984206DB074B012291
:1001F00052421A60FFF7DCFF10BD0028FADC034B07
:1002000001221A60F6E7C0460C0000200000002022
:1002100008000020094A136820218B431360084B13
:100220001B689B06FBD5074B05221A60064A11681E
:1002300080239B040B4313607047C04600C00040FE
:1002400008C00040CC400140240000D010B5FFF7AA
:10025000E1FF0E4B0E4A934201D0FFF769FF0D4BB1
:100260001B68002B0ED10C4B1B68642B0CD1094A68
:10027000136801331360FFF77BFFFFF789FFFFF778
:10028000A1FFF4E7FFF754FFFFF752FF000004203F
:10029000000004200C00002004000020FEE770B5E0
:1002A00014000D1A0123042D00DC0023DBB2002B07
:1002B00006D02A000100200000F06CF8601970BD23
:1002C000042DFBD103682360F8E7000010B5084B4C
:1002D000084A991A08480918FFF7E1FF074B01E09F
:1002E000002204C3064A9342FAD1FFF7AFFFFEE7AC
:1002F0000800002000000020580400100800002022
:1003000010000020002934D00123002210B48842BC
:100310002CD301242407A14204D2814202D2090134
:100320001B01F8E7E400A14204D2814202D2490055
:100330005B00F8E7884201D3401A1A434C08A042F8
:1003400002D3001B5C0822438C08A04202D3001B8E
:100350009C082243CC08A04202D3001BDC082243A5
:10036000002803D01B0901D00909E3E7100010BCE5
:10037000704701B5002000F00BF802BD0029F8D04D
:1003800003B5FFF7C1FF0EBC4243891A1847C046A8
:100390007047C046F0B5CE46474680B588420DD975
:1003A0008B1898420AD2531E002A03D0CA5CC2544A
:1003B000013BFBD2C0BCB946B046F0BD0F2A0BD8FA
:1003C0000500561E002AF5D00023CC5C1A00EC5420
:1003D00001339642F9D1EDE703000B4388469B07B2
:1003E00034D110261700B1460C000300103F3F091E
:1003F0003F01C519A94426681E6066685E60A6684C
:100400009E60E6681034DE601E001033AE42F2D10A
:10041000CF1939000F230C2610318C461340164299
:1004200017D04446043B9B089B00FF181437061B5B
:100430000C688D1904312C60B942F9D1614604333E
:1004400059184B441D0003231A40BAE70500561EF5
:08045000BAE74D461A00B4E7BB
:08045800010000006400000037
:0400000510000000E7
:00000001FF
