:020000041000EA
:1000000000B50C4B00219960042159610A4919601F
:100010000A490B480160002159600121996001BC27
:10002000002800D0004707480749086003C880F34C
:10003000088808470000001800031F00180200038A
:10004000F40000180001001008ED00E000000000BE
:1000500000000000000000000000000000000000A0
:100060000000000000000000000000000000000090
:100070000000000000000000000000000000000080
:100080000000000000000000000000000000000070
:100090000000000000000000000000000000000060
:1000A0000000000000000000000000000000000050
:1000B0000000000000000000000000000000000040
:1000C0000000000000000000000000000000000030
:1000D0000000000000000000000000000000000020
:1000E0000000000000000000000000000000000010
:1000F0000000000000000000000000002CEC210DBA
:100100000000042019030010C1020010C1020010F9
:10011000014B7B221A6070470800002082B0002348
:10012000019302E0019B01330193019A024B9A4231
:10013000F8D902B07047C046473C000010B5FFF741
:10014000EDFF034A116880239B040B431360F6E71D
:100150001C0000D0FA235B00984200D91800014B24
:10016000186070470400002010B5104B1868642117
:1001700000F03CF9002905D10D4B19680D4A1368B0
:100180005B1813600B4B1868FA235B00984206DB80
:10019000074B012252421A60FFF7DCFF10BD002816
:1001A000FADC034B01221A60F6E7C046100000207B
:1001B000000000200C000020094A136820218B4316
:1001C0001360084B1B689B06FBD5074B05221A6082
:1001D000064A116880239B040B4313607047C04696
:1001E00000C0004008C00040CC400140240000D0C6
:1001F000074B1A68FA235B009A4208D3044B00228B
:100200001A60044A116880239B040B4313607047F3
:1002100010000020140000D0064B1A68064B1B6823
:100220009A4205D3054A116880239B040B4313604F
:100230007047C0461000002004000020180000D0C5
:1002400010B50C4B0C4A93420DD10C4B1B68002B84
:100250000BD10B4B1B68642B09D10A4B1B687B2B02
:1002600007D0FFF76BFFFFF769FFFFF767FFFFF7A7
:1002700065FF10BD000004200000042010000020D5
:10028000040000200800002010B582B0FFF794FFA2
:10029000FFF7D6FFFFF790FF064A1368013313609C
:1002A00001AC2000FFF7A4FF2000FFF7B5FFFFF728
:1002B0005BFFF1E71000002010B5FFF729FF10BD2C
:1002C000FEE770B504000D0001E008CC9847AC4291
:1002D000FBD1002070BD70B504000D0001E008CC1A
:1002E0009847AC42FBD1002070BD70B514000D1AC8
:1002F0000123042D00DC0023DBB2002B06D02A00F2
:100300000100200000F07EF8601970BD042DFBD1C3
:1003100003682360F8E7000010B50D4B0D4A991AE9
:100320000D480918FFF7E1FF0C4B01E0002204C360
:100330000B4A9342FAD10B490B480022FFF7C1FF49
:100340000A490B480022FFF7C6FFFFF79DFFFEE7B3
:100350000800002000000020CC040010080000204D
:1003600014000020C8040010C8040010CC040010C1
:10037000C8040010002934D00123002210B48842A0
:100380002CD301242407A14204D2814202D20901C4
:100390001B01F8E7E400A14204D2814202D24900E5
:1003A0005B00F8E7884201D3401A1A434C08A04288
:1003B00002D3001B5C0822438C08A04202D3001B1E
:1003C0009C082243CC08A04202D3001BDC08224335
:1003D000002803D01B0901D00909E3E7100010BC75
:1003E000704701B5002000F00BF802BD0029F8D0DD
:1003F00003B5FFF7C1FF0EBC4243891A1847C04638
:100400007047C046F0B5CE46474680B588420DD904
:100410008B1898420AD2531E002A03D0CA5CC254D9
:10042000013BFBD2C0BCB946B046F0BD0F2A0BD889
:100430000500561E002AF5D00023CC5C1A00EC54AF
:1004400001339642F9D1EDE703000B4388469B0741
:1004500034D110261700B1460C000300103F3F09AD
:100460003F01C519A94426681E6066685E60A668DB
:100470009E60E6681034DE601E001033AE42F2D19A
:10048000CF1939000F230C2610318C461340164229
:1004900017D04446043B9B089B00FF181437061BEB
:1004A0000C688D1904312C60B942F9D161460433CE
:1004B00059184B441D0003231A40BAE70500561E85
:0804C000BAE74D461A00B4E74B
:0404C800B902001065
:0804CC000100000064000000C3
:0400000510000000E7
:00000001FF
