:020000041000EA
:1000000000B50C4B00219960042159610A4919601F
:100010000A490B480160002159600121996001BC27
:10002000002800D0004707480749086003C880F34C
:10003000088808470000001800031F00180200038A
:10004000F40000180001001008ED00E000000000BE
:1000500000000000000000000000000000000000A0
:100060000000000000000000000000000000000090
:100070000000000000000000000000000000000080
:100080000000000000000000000000000000000070
:100090000000000000000000000000000000000060
:1000A0000000000000000000000000000000000050
:1000B0000000000000000000000000000000000040
:1000C0000000000000000000000000000000000030
:1000D0000000000000000000000000000000000020
:1000E0000000000000000000000000000000000010
:1000F0000000000000000000000000002CEC210DBA
:100100000000042025020010CD010010CD010010D8
:1001100000000000000000000000000000000000DF
:10012000000000000000000000000000CD010010F1
:100130000000000000000000CD0100108901001047
:10014000094A136820218B431360084B1B689B06E8
:10015000FBD5074B05221A60064A116880239B04D1
:100160000B4313607047C04600C0004008C0004009
:10017000CC400140240000D010B50248FFF7E0FF5A
:1001800010BDC04600000020034A116880239B0474
:100190000B4313607047C0461C0000D0064A11682C
:1001A00080239B040B431360044B054A5A600722CB
:1001B0001A6030BFFDE7C046180000D010E000E034
:1001C000A02E630010B5FFF7D7FF10BDFEE770B596
:1001D00004000D0001E008CC9847AC42FBD10020A0
:1001E00070BD70B504000D0001E008CC9847AC422A
:1001F000FBD1002070BD70B514000D1A0123042D31
:1002000000DC0023DBB2002B06D02A000100200016
:1002100000F036F8601970BD042DFBD1036823602F
:10022000F8E7000010B50D4B0D4A991A0D48091852
:10023000FFF7E1FF0C4B01E0002204C30B4A93429D
:10024000FAD10B490B480022FFF7C1FF0A490B48BE
:100250000022FFF7C6FFFFF7A1FFFEE70000002026
:1002600000000020480300100000002004000020CF
:10027000440300104403001048030010440300101E
:10028000F0B5CE46474680B588420DD98B189842C6
:100290000AD2531E002A03D0CA5CC254013BFBD2CF
:1002A000C0BCB946B046F0BD0F2A0BD80500561E9B
:1002B000002AF5D00023CC5C1A00EC54013396429E
:1002C000F9D1EDE703000B4388469B0734D1102694
:1002D0001700B1460C000300103F3F093F01C5194C
:1002E000A94426681E6066685E60A6689E60E6682F
:1002F0001034DE601E001033AE42F2D1CF19390047
:100300000F230C2610318C461340164217D044465A
:10031000043B9B089B00FF181437061B0C688D19C3
:1003200004312C60B942F9D16146043359184B4469
:100330001D0003231A40BAE70500561EBAE74D46D2
:040340001A00B4E704
:04034400C5010010DF
:0400000510000000E7
:00000001FF
