:020000041000EA
:1000000000B50C4B00219960042159610A4919601F
:100010000A490B480160002159600121996001BC27
:10002000002800D0004707480749086003C880F34C
:10003000088808470000001800031F00180200038A
:10004000F40000180001001008ED00E000000000BE
:1000500000000000000000000000000000000000A0
:100060000000000000000000000000000000000090
:100070000000000000000000000000000000000080
:100080000000000000000000000000000000000070
:100090000000000000000000000000000000000060
:1000A0000000000000000000000000000000000050
:1000B0000000000000000000000000000000000040
:1000C0000000000000000000000000000000000030
:1000D0000000000000000000000000000000000020
:1000E0000000000000000000000000000000000010
:1000F0000000000000000000000000002CEC210DBA
:100100000000042025030010CD020010CD020010D5
:1001100000000000000000000000000000000000DF
:10012000000000000000000000000000CD020010F0
:100130000000000000000000CD0200107D02001051
:10014000064BAA2212011A602F22DA60044B054ADC
:100150001A60024B5B68002BFBDA704700400240DC
:100160000060024000B0FA000D4A13680D490B40D0
:1001700013600D4B1B68DB04FBD50C4B64229A60AB
:100180000B4B433A1A60094B1B68002BFBDA074BF9
:10019000A422D202DA60064B08221A607047C046D9
:1001A00000C00040FFEFFFFF08C000400080024099
:1001B00004B00240064B1A6802235A400133134030
:1001C000044A1360024B9B685B07FBD57047C0462F
:1001D0003080004030900040054B1A680123934363
:1001E000044A1360024B9B689B07FBD57047C046CF
:1001F0003C8000403C900040044B1A68044B534044
:10020000044A1340044A13607047C046004002404D
:100210001E0D000000F0FF000050024010B5FFF777
:100220008FFFFFF7A1FFFFF7C5FFFFF7D5FFFFF730
:10023000E3FF10BD094A136820218B431360084B6C
:100240001B689B06FBD5074B05221A60064A1168FE
:1002500080239B040B4313607047C04600C00040DE
:1002600008C00040CC400140240000D010B5024836
:10027000FFF7E0FF10BDC04600000020034A1168F0
:1002800080239B040B4313607047C0461C0000D0C2
:10029000024B034A5A6007221A60704710E000E0E0
:1002A000001BB70010B5FFF7B9FF054A116880239E
:1002B0009B040B431360FFF7EBFF30BFFDE7C04625
:1002C000180000D010B5FFF7D1FF10BDFEE770B5E4
:1002D00004000D0001E008CC9847AC42FBD100209F
:1002E00070BD70B504000D0001E008CC9847AC4229
:1002F000FBD1002070BD70B514000D1A0123042D30
:1003000000DC0023DBB2002B06D02A000100200015
:1003100000F036F8601970BD042DFBD1036823602E
:10032000F8E7000010B50D4B0D4A991A0D48091851
:10033000FFF7E1FF0C4B01E0002204C30B4A93429C
:10034000FAD10B490B480022FFF7C1FF0A490B48BD
:100350000022FFF7C6FFFFF7A5FFFEE70000002021
:1003600000000020480400100000002004000020CD
:100370004404001044040010480400104404001019
:10038000F0B5CE46474680B588420DD98B189842C5
:100390000AD2531E002A03D0CA5CC254013BFBD2CE
:1003A000C0BCB946B046F0BD0F2A0BD80500561E9A
:1003B000002AF5D00023CC5C1A00EC54013396429D
:1003C000F9D1EDE703000B4388469B0734D1102693
:1003D0001700B1460C000300103F3F093F01C5194B
:1003E000A94426681E6066685E60A6689E60E6682E
:1003F0001034DE601E001033AE42F2D1CF19390046
:100400000F230C2610318C461340164217D0444659
:10041000043B9B089B00FF181437061B0C688D19C2
:1004200004312C60B942F9D16146043359184B4468
:100430001D0003231A40BAE70500561EBAE74D46D1
:040440001A00B4E703
:04044400C5020010DD
:0400000510000325BF
:00000001FF
