:020000041000EA
:1000000000B50C4B00219960042159610A4919601F
:100010000A490B480160002159600121996001BC27
:10002000002800D0004707480749086003C880F34C
:10003000088808470000001800031F00180200038A
:10004000F40000180001001008ED00E000000000BE
:1000500000000000000000000000000000000000A0
:100060000000000000000000000000000000000090
:100070000000000000000000000000000000000080
:100080000000000000000000000000000000000070
:100090000000000000000000000000000000000060
:1000A0000000000000000000000000000000000050
:1000B0000000000000000000000000000000000040
:1000C0000000000000000000000000000000000030
:1000D0000000000000000000000000000000000020
:1000E0000000000000000000000000000000000010
:1000F0000000000000000000000000002CEC210DBA
:100100000000042009030010010300100103001087
:1001100080B582B000AF00237B6002E07B680133D2
:100120007B607B68034A9342F8D9C046C046BD460F
:1001300002B080BD473C000080B500AFFFF7E8FF8C
:10014000034B1A68024B802189040A431A60F5E7C1
:100150001C0000D080B500AF044B1A68034B80210F
:1001600089040A431A60C046BD4680BD140000D011
:1001700080B500AF044B1A68034B802189040A4301
:100180001A60C046BD4680BD180000D080B500AFE3
:10019000064B1B68FA225200934204D3034B002201
:1001A0001A60FFF7D7FFC046BD4680BD080000209B
:1001B00080B500AF054B1A68054B1B689A4201D306
:1001C000FFF7D6FFC046BD4680BDC04608000020F0
:1001D0000000002080B582B000AF7860FA235B0099
:1001E0001A007B68934202D9FA235B007B60034BC1
:1001F0007A681A60C046BD4602B080BD000000208B
:1002000080B500AF144B1B686421180000F0E8F8BB
:100210000B1E06D1114B1A68114B1B68D2180F4BDD
:100220001A600E4B1A68FA235B009A4204DB0C4BEF
:10023000012252421A6006E0084B1B68002B02DCC8
:10024000074B01221A60054B1B681800FFF7C2FF1D
:10025000C046BD4680BDC046080000200C000020FE
:100260000400002080B500AF0C4B1A680B4B202116
:100270008A431A60C0460A4B1B6820221340FAD0FA
:10028000084B05221A60084B1A68074B8021890425
:100290000A431A60C046BD4680BDC04600C000404B
:1002A00008C00040CC400140240000D080B500AF21
:1002B000FFF7D8FF0E4B0F4A934201D0FFF73CFFE8
:1002C0000D4B1B68002B01D0FFF736FF0B4B1B6853
:1002D000642B01D0FFF730FF074B1B685A1C064BFD
:1002E0001A60FFF753FFFFF763FFFFF789FFF3E79C
:1002F000000004200000042008000020000000206E
:1003000080B500AFFEE7000080B582B000AF114BB2
:100310003B60114B7B6009E07B681A683B681A60A0
:100320003B6804333B607B6804337B603A680B4B6B
:100330009A42F1D30A4B3B6005E03B6800221A6009
:100340003B6804333B603A68064B9A42F5D3FFF7AB
:10035000ADFFFEE700000020F803001008000020B9
:100360000800002010000020002934D001230022C2
:1003700010B488422CD301242407A14204D2814224
:1003800002D209011B01F8E7E400A14204D2814234
:1003900002D249005B00F8E7884201D3401A1A43B1
:1003A0004C08A04202D3001B5C0822438C08A042E8
:1003B00002D3001B9C082243CC08A04202D3001B9E
:1003C000DC082243002803D01B0901D00909E3E718
:1003D000100010BC704701B5002000F00BF802BD02
:1003E0000029F8D003B5FFF7C1FF0EBC4243891ABC
:0803F0001847C0467047C046E3
:0803F800640000000100000098
:0400000510000309DB
:00000001FF
